{
  "_format": "hh-sol-artifact-1",
  "contractName": "BraveDog",
  "sourceName": "contracts/BraveDog.sol",
  "abi": [
    {
      "inputs": [
        {
          "internalType": "string",
          "name": "name",
          "type": "string"
        },
        {
          "internalType": "string",
          "name": "symbol",
          "type": "string"
        },
        {
          "internalType": "string",
          "name": "uri",
          "type": "string"
        }
      ],
      "stateMutability": "nonpayable",
      "type": "constructor"
    },
    {
      "anonymous": false,
      "inputs": [
        {
          "indexed": true,
          "internalType": "address",
          "name": "owner",
          "type": "address"
        },
        {
          "indexed": true,
          "internalType": "address",
          "name": "approved",
          "type": "address"
        },
        {
          "indexed": true,
          "internalType": "uint256",
          "name": "tokenId",
          "type": "uint256"
        }
      ],
      "name": "Approval",
      "type": "event"
    },
    {
      "anonymous": false,
      "inputs": [
        {
          "indexed": true,
          "internalType": "address",
          "name": "owner",
          "type": "address"
        },
        {
          "indexed": true,
          "internalType": "address",
          "name": "operator",
          "type": "address"
        },
        {
          "indexed": false,
          "internalType": "bool",
          "name": "approved",
          "type": "bool"
        }
      ],
      "name": "ApprovalForAll",
      "type": "event"
    },
    {
      "anonymous": false,
      "inputs": [
        {
          "indexed": false,
          "internalType": "string",
          "name": "newBaseURI",
          "type": "string"
        }
      ],
      "name": "BaseURIChanged",
      "type": "event"
    },
    {
      "anonymous": false,
      "inputs": [
        {
          "indexed": false,
          "internalType": "uint256",
          "name": "amount",
          "type": "uint256"
        }
      ],
      "name": "Minted",
      "type": "event"
    },
    {
      "anonymous": false,
      "inputs": [
        {
          "indexed": true,
          "internalType": "address",
          "name": "previousOwner",
          "type": "address"
        },
        {
          "indexed": true,
          "internalType": "address",
          "name": "newOwner",
          "type": "address"
        }
      ],
      "name": "OwnershipTransferred",
      "type": "event"
    },
    {
      "anonymous": false,
      "inputs": [
        {
          "indexed": false,
          "internalType": "bool",
          "name": "paused",
          "type": "bool"
        }
      ],
      "name": "PausedStateChanged",
      "type": "event"
    },
    {
      "anonymous": false,
      "inputs": [
        {
          "indexed": false,
          "internalType": "uint256",
          "name": "amount",
          "type": "uint256"
        }
      ],
      "name": "RoyaltiesAdded",
      "type": "event"
    },
    {
      "anonymous": false,
      "inputs": [
        {
          "indexed": true,
          "internalType": "address",
          "name": "user",
          "type": "address"
        },
        {
          "indexed": false,
          "internalType": "uint256",
          "name": "amount",
          "type": "uint256"
        }
      ],
      "name": "RoyaltiesClaimed",
      "type": "event"
    },
    {
      "anonymous": false,
      "inputs": [
        {
          "indexed": true,
          "internalType": "address",
          "name": "from",
          "type": "address"
        },
        {
          "indexed": true,
          "internalType": "address",
          "name": "to",
          "type": "address"
        },
        {
          "indexed": true,
          "internalType": "uint256",
          "name": "tokenId",
          "type": "uint256"
        }
      ],
      "name": "Transfer",
      "type": "event"
    },
    {
      "inputs": [],
      "name": "FREEMINT_MAXS",
      "outputs": [
        {
          "internalType": "uint256",
          "name": "",
          "type": "uint256"
        }
      ],
      "stateMutability": "view",
      "type": "function"
    },
    {
      "inputs": [],
      "name": "MAX_SUPPLY",
      "outputs": [
        {
          "internalType": "uint256",
          "name": "",
          "type": "uint256"
        }
      ],
      "stateMutability": "view",
      "type": "function"
    },
    {
      "inputs": [],
      "name": "MINT_ROYALTIES",
      "outputs": [
        {
          "internalType": "uint256",
          "name": "",
          "type": "uint256"
        }
      ],
      "stateMutability": "view",
      "type": "function"
    },
    {
      "inputs": [],
      "name": "PUBLIC_PRICE",
      "outputs": [
        {
          "internalType": "uint256",
          "name": "",
          "type": "uint256"
        }
      ],
      "stateMutability": "view",
      "type": "function"
    },
    {
      "inputs": [],
      "name": "WHITELIST_MAXS",
      "outputs": [
        {
          "internalType": "uint256",
          "name": "",
          "type": "uint256"
        }
      ],
      "stateMutability": "view",
      "type": "function"
    },
    {
      "inputs": [],
      "name": "WHITELIST_PRICE",
      "outputs": [
        {
          "internalType": "uint256",
          "name": "",
          "type": "uint256"
        }
      ],
      "stateMutability": "view",
      "type": "function"
    },
    {
      "inputs": [
        {
          "internalType": "address[]",
          "name": "addresses",
          "type": "address[]"
        }
      ],
      "name": "addFreemint",
      "outputs": [],
      "stateMutability": "nonpayable",
      "type": "function"
    },
    {
      "inputs": [],
      "name": "addRoyalties",
      "outputs": [],
      "stateMutability": "payable",
      "type": "function"
    },
    {
      "inputs": [
        {
          "internalType": "address[]",
          "name": "addresses",
          "type": "address[]"
        }
      ],
      "name": "addWhitelist",
      "outputs": [],
      "stateMutability": "nonpayable",
      "type": "function"
    },
    {
      "inputs": [
        {
          "internalType": "address",
          "name": "to",
          "type": "address"
        },
        {
          "internalType": "uint256",
          "name": "tokenId",
          "type": "uint256"
        }
      ],
      "name": "approve",
      "outputs": [],
      "stateMutability": "nonpayable",
      "type": "function"
    },
    {
      "inputs": [
        {
          "internalType": "address",
          "name": "owner",
          "type": "address"
        }
      ],
      "name": "balanceOf",
      "outputs": [
        {
          "internalType": "uint256",
          "name": "",
          "type": "uint256"
        }
      ],
      "stateMutability": "view",
      "type": "function"
    },
    {
      "inputs": [],
      "name": "claimAllRoyalties",
      "outputs": [],
      "stateMutability": "nonpayable",
      "type": "function"
    },
    {
      "inputs": [
        {
          "internalType": "uint256[]",
          "name": "tokenIds",
          "type": "uint256[]"
        }
      ],
      "name": "claimRoyalties",
      "outputs": [],
      "stateMutability": "nonpayable",
      "type": "function"
    },
    {
      "inputs": [
        {
          "internalType": "address",
          "name": "",
          "type": "address"
        }
      ],
      "name": "freemintMinted",
      "outputs": [
        {
          "internalType": "uint256",
          "name": "",
          "type": "uint256"
        }
      ],
      "stateMutability": "view",
      "type": "function"
    },
    {
      "inputs": [],
      "name": "freemintStart",
      "outputs": [
        {
          "internalType": "uint256",
          "name": "",
          "type": "uint256"
        }
      ],
      "stateMutability": "view",
      "type": "function"
    },
    {
      "inputs": [
        {
          "internalType": "address",
          "name": "",
          "type": "address"
        }
      ],
      "name": "freemintWallets",
      "outputs": [
        {
          "internalType": "bool",
          "name": "",
          "type": "bool"
        }
      ],
      "stateMutability": "view",
      "type": "function"
    },
    {
      "inputs": [
        {
          "internalType": "uint256",
          "name": "tokenId",
          "type": "uint256"
        }
      ],
      "name": "getApproved",
      "outputs": [
        {
          "internalType": "address",
          "name": "",
          "type": "address"
        }
      ],
      "stateMutability": "view",
      "type": "function"
    },
    {
      "inputs": [],
      "name": "getCurrentStage",
      "outputs": [
        {
          "internalType": "enum BraveDog.MintStage",
          "name": "",
          "type": "uint8"
        }
      ],
      "stateMutability": "view",
      "type": "function"
    },
    {
      "inputs": [],
      "name": "getMintTimes",
      "outputs": [
        {
          "internalType": "uint256",
          "name": "freemint",
          "type": "uint256"
        },
        {
          "internalType": "uint256",
          "name": "whitelist",
          "type": "uint256"
        },
        {
          "internalType": "uint256",
          "name": "publicMint",
          "type": "uint256"
        }
      ],
      "stateMutability": "view",
      "type": "function"
    },
    {
      "inputs": [
        {
          "internalType": "uint256",
          "name": "tokenId",
          "type": "uint256"
        }
      ],
      "name": "getRewardsToken",
      "outputs": [
        {
          "internalType": "uint256",
          "name": "",
          "type": "uint256"
        }
      ],
      "stateMutability": "view",
      "type": "function"
    },
    {
      "inputs": [
        {
          "internalType": "address",
          "name": "user",
          "type": "address"
        }
      ],
      "name": "getRoyalties",
      "outputs": [
        {
          "internalType": "uint256",
          "name": "total",
          "type": "uint256"
        }
      ],
      "stateMutability": "view",
      "type": "function"
    },
    {
      "inputs": [
        {
          "internalType": "address",
          "name": "owner",
          "type": "address"
        },
        {
          "internalType": "address",
          "name": "operator",
          "type": "address"
        }
      ],
      "name": "isApprovedForAll",
      "outputs": [
        {
          "internalType": "bool",
          "name": "",
          "type": "bool"
        }
      ],
      "stateMutability": "view",
      "type": "function"
    },
    {
      "inputs": [
        {
          "internalType": "uint256",
          "name": "amount",
          "type": "uint256"
        }
      ],
      "name": "mint",
      "outputs": [],
      "stateMutability": "payable",
      "type": "function"
    },
    {
      "inputs": [],
      "name": "name",
      "outputs": [
        {
          "internalType": "string",
          "name": "",
          "type": "string"
        }
      ],
      "stateMutability": "view",
      "type": "function"
    },
    {
      "inputs": [],
      "name": "owner",
      "outputs": [
        {
          "internalType": "address",
          "name": "",
          "type": "address"
        }
      ],
      "stateMutability": "view",
      "type": "function"
    },
    {
      "inputs": [
        {
          "internalType": "uint256",
          "name": "tokenId",
          "type": "uint256"
        }
      ],
      "name": "ownerOf",
      "outputs": [
        {
          "internalType": "address",
          "name": "",
          "type": "address"
        }
      ],
      "stateMutability": "view",
      "type": "function"
    },
    {
      "inputs": [],
      "name": "paused",
      "outputs": [
        {
          "internalType": "bool",
          "name": "",
          "type": "bool"
        }
      ],
      "stateMutability": "view",
      "type": "function"
    },
    {
      "inputs": [],
      "name": "publicStart",
      "outputs": [
        {
          "internalType": "uint256",
          "name": "",
          "type": "uint256"
        }
      ],
      "stateMutability": "view",
      "type": "function"
    },
    {
      "inputs": [],
      "name": "renounceOwnership",
      "outputs": [],
      "stateMutability": "nonpayable",
      "type": "function"
    },
    {
      "inputs": [
        {
          "internalType": "address",
          "name": "from",
          "type": "address"
        },
        {
          "internalType": "address",
          "name": "to",
          "type": "address"
        },
        {
          "internalType": "uint256",
          "name": "tokenId",
          "type": "uint256"
        }
      ],
      "name": "safeTransferFrom",
      "outputs": [],
      "stateMutability": "nonpayable",
      "type": "function"
    },
    {
      "inputs": [
        {
          "internalType": "address",
          "name": "from",
          "type": "address"
        },
        {
          "internalType": "address",
          "name": "to",
          "type": "address"
        },
        {
          "internalType": "uint256",
          "name": "tokenId",
          "type": "uint256"
        },
        {
          "internalType": "bytes",
          "name": "data",
          "type": "bytes"
        }
      ],
      "name": "safeTransferFrom",
      "outputs": [],
      "stateMutability": "nonpayable",
      "type": "function"
    },
    {
      "inputs": [
        {
          "internalType": "address",
          "name": "operator",
          "type": "address"
        },
        {
          "internalType": "bool",
          "name": "approved",
          "type": "bool"
        }
      ],
      "name": "setApprovalForAll",
      "outputs": [],
      "stateMutability": "nonpayable",
      "type": "function"
    },
    {
      "inputs": [
        {
          "internalType": "string",
          "name": "newBaseURI",
          "type": "string"
        }
      ],
      "name": "setBaseURI",
      "outputs": [],
      "stateMutability": "nonpayable",
      "type": "function"
    },
    {
      "inputs": [
        {
          "internalType": "uint256",
          "name": "_freemintStart",
          "type": "uint256"
        },
        {
          "internalType": "uint256",
          "name": "_whitelistStart",
          "type": "uint256"
        },
        {
          "internalType": "uint256",
          "name": "_publicStart",
          "type": "uint256"
        }
      ],
      "name": "setMintTimes",
      "outputs": [],
      "stateMutability": "nonpayable",
      "type": "function"
    },
    {
      "inputs": [
        {
          "internalType": "bytes4",
          "name": "interfaceId",
          "type": "bytes4"
        }
      ],
      "name": "supportsInterface",
      "outputs": [
        {
          "internalType": "bool",
          "name": "",
          "type": "bool"
        }
      ],
      "stateMutability": "view",
      "type": "function"
    },
    {
      "inputs": [],
      "name": "symbol",
      "outputs": [
        {
          "internalType": "string",
          "name": "",
          "type": "string"
        }
      ],
      "stateMutability": "view",
      "type": "function"
    },
    {
      "inputs": [
        {
          "internalType": "uint256",
          "name": "amount",
          "type": "uint256"
        },
        {
          "internalType": "address",
          "name": "to",
          "type": "address"
        }
      ],
      "name": "teamMint",
      "outputs": [],
      "stateMutability": "nonpayable",
      "type": "function"
    },
    {
      "inputs": [],
      "name": "togglePause",
      "outputs": [],
      "stateMutability": "nonpayable",
      "type": "function"
    },
    {
      "inputs": [
        {
          "internalType": "uint256",
          "name": "index",
          "type": "uint256"
        }
      ],
      "name": "tokenByIndex",
      "outputs": [
        {
          "internalType": "uint256",
          "name": "",
          "type": "uint256"
        }
      ],
      "stateMutability": "view",
      "type": "function"
    },
    {
      "inputs": [
        {
          "internalType": "address",
          "name": "owner",
          "type": "address"
        },
        {
          "internalType": "uint256",
          "name": "index",
          "type": "uint256"
        }
      ],
      "name": "tokenOfOwnerByIndex",
      "outputs": [
        {
          "internalType": "uint256",
          "name": "",
          "type": "uint256"
        }
      ],
      "stateMutability": "view",
      "type": "function"
    },
    {
      "inputs": [
        {
          "internalType": "uint256",
          "name": "tokenId",
          "type": "uint256"
        }
      ],
      "name": "tokenURI",
      "outputs": [
        {
          "internalType": "string",
          "name": "",
          "type": "string"
        }
      ],
      "stateMutability": "view",
      "type": "function"
    },
    {
      "inputs": [
        {
          "internalType": "address",
          "name": "owner",
          "type": "address"
        }
      ],
      "name": "tokensOfOwner",
      "outputs": [
        {
          "internalType": "uint256[]",
          "name": "",
          "type": "uint256[]"
        }
      ],
      "stateMutability": "view",
      "type": "function"
    },
    {
      "inputs": [],
      "name": "totalRoyalties",
      "outputs": [
        {
          "internalType": "uint256",
          "name": "",
          "type": "uint256"
        }
      ],
      "stateMutability": "view",
      "type": "function"
    },
    {
      "inputs": [],
      "name": "totalSupply",
      "outputs": [
        {
          "internalType": "uint256",
          "name": "",
          "type": "uint256"
        }
      ],
      "stateMutability": "view",
      "type": "function"
    },
    {
      "inputs": [
        {
          "internalType": "address",
          "name": "from",
          "type": "address"
        },
        {
          "internalType": "address",
          "name": "to",
          "type": "address"
        },
        {
          "internalType": "uint256",
          "name": "tokenId",
          "type": "uint256"
        }
      ],
      "name": "transferFrom",
      "outputs": [],
      "stateMutability": "nonpayable",
      "type": "function"
    },
    {
      "inputs": [
        {
          "internalType": "address",
          "name": "newOwner",
          "type": "address"
        }
      ],
      "name": "transferOwnership",
      "outputs": [],
      "stateMutability": "nonpayable",
      "type": "function"
    },
    {
      "inputs": [
        {
          "internalType": "address",
          "name": "",
          "type": "address"
        }
      ],
      "name": "whitelistMinted",
      "outputs": [
        {
          "internalType": "uint256",
          "name": "",
          "type": "uint256"
        }
      ],
      "stateMutability": "view",
      "type": "function"
    },
    {
      "inputs": [],
      "name": "whitelistStart",
      "outputs": [
        {
          "internalType": "uint256",
          "name": "",
          "type": "uint256"
        }
      ],
      "stateMutability": "view",
      "type": "function"
    },
    {
      "inputs": [
        {
          "internalType": "address",
          "name": "",
          "type": "address"
        }
      ],
      "name": "whitelistWallets",
      "outputs": [
        {
          "internalType": "bool",
          "name": "",
          "type": "bool"
        }
      ],
      "stateMutability": "view",
      "type": "function"
    },
    {
      "inputs": [],
      "name": "withdraw",
      "outputs": [],
      "stateMutability": "nonpayable",
      "type": "function"
    }
  ],
  "bytecode": "0x6080604052600c805460ff1916905534801561001a57600080fd5b50604051612f8b380380612f8b83398101604081905261003991610184565b82826100443361007b565b60018055600261005483826102a2565b50600361006182826102a2565b50600d9150610072905082826102a2565b50505050610360565b600080546001600160a01b038381166001600160a01b0319831681178455604051919092169283917f8be0079c531659141344cd1fd0a4f28419497f9722a3daafe3b4186f6b6457e09190a35050565b634e487b7160e01b600052604160045260246000fd5b600082601f8301126100f257600080fd5b81516001600160401b0381111561010b5761010b6100cb565b604051601f8201601f19908116603f011681016001600160401b0381118282101715610139576101396100cb565b60405281815283820160200185101561015157600080fd5b60005b8281101561017057602081860181015183830182015201610154565b506000918101602001919091529392505050565b60008060006060848603121561019957600080fd5b83516001600160401b038111156101af57600080fd5b6101bb868287016100e1565b602086015190945090506001600160401b038111156101d957600080fd5b6101e5868287016100e1565b604086015190935090506001600160401b0381111561020357600080fd5b61020f868287016100e1565b9150509250925092565b600181811c9082168061022d57607f821691505b60208210810361024d57634e487b7160e01b600052602260045260246000fd5b50919050565b601f82111561029d57806000526020600020601f840160051c8101602085101561027a5750805b601f840160051c820191505b8181101561029a5760008155600101610286565b50505b505050565b81516001600160401b038111156102bb576102bb6100cb565b6102cf816102c98454610219565b84610253565b6020601f82116001811461030357600083156102eb5750848201515b600019600385901b1c1916600184901b17845561029a565b600084815260208120601f198516915b828110156103335787850151825560209485019460019092019101610313565b50848210156103515786840151600019600387901b60f8161c191681555b50505050600190811b01905550565b612c1c8061036f6000396000f3fe6080604052600436106102c95760003560e01c8063715018a611610175578063b88d4fde116100dc578063e985e9c511610095578063edb308981161006f578063edb3089814610871578063eedbe31d14610891578063f2fde38b146108b3578063f7e78e9d146108d357600080fd5b8063e985e9c5146107f3578063eb24a48b1461083c578063edac985b1461085157600080fd5b8063b88d4fde14610756578063bfa457bc14610776578063c4ae316814610796578063c87b56dd146107ab578063d3e96658146107cb578063db4f6d31146107eb57600080fd5b806398a8cffe1161012e57806398a8cffe14610699578063994d3969146106c6578063a0712d68146106dc578063a22cb465146106ef578063a5f4c6ff1461070f578063b0c3e59b1461072557600080fd5b8063715018a6146105f95780638462151c1461060e57806386d026081461063b5780638da5cb5b146106515780639578962b1461066f57806395d89b411461068457600080fd5b806336b38a0711610234578063547eafd0116101ed578063611f3f10116101c7578063611f3f101461056e5780636352211e146105895780636d33a6c2146105a957806370a08231146105d957600080fd5b8063547eafd01461051f57806355f804b3146105345780635c975abb1461055457600080fd5b806336b38a07146104675780633ccfd60b1461047d5780633cd972ac1461049257806342842e0e146104b25780634553b209146104d25780634f6ccce7146104ff57600080fd5b8063161aa07911610286578063161aa079146103cd57806317e7f295146103e257806318160ddd146103fd57806323b872dd146104125780632f745c591461043257806332cb6b0c1461045257600080fd5b806301ffc9a7146102ce57806306fdde0314610303578063081812fc14610325578063095ea7b31461035d57806313ece8161461037f57806314556a561461039f575b600080fd5b3480156102da57600080fd5b506102ee6102e936600461243f565b610903565b60405190151581526020015b60405180910390f35b34801561030f57600080fd5b5061031861092e565b6040516102fa91906124ac565b34801561033157600080fd5b506103456103403660046124bf565b6109c0565b6040516001600160a01b0390911681526020016102fa565b34801561036957600080fd5b5061037d6103783660046124f4565b6109e7565b005b34801561038b57600080fd5b5061037d61039a36600461256a565b610b01565b3480156103ab57600080fd5b506103bf6103ba3660046125ac565b610c0a565b6040519081526020016102fa565b3480156103d957600080fd5b506103bf600181565b3480156103ee57600080fd5b506103bf6601c6bf5263400081565b34801561040957600080fd5b50600a546103bf565b34801561041e57600080fd5b5061037d61042d3660046125c7565b610c56565b34801561043e57600080fd5b506103bf61044d3660046124f4565b610c87565b34801561045e57600080fd5b506103bf606f81565b34801561047357600080fd5b506103bf600e5481565b34801561048957600080fd5b5061037d610d1d565b34801561049e57600080fd5b506103bf6104ad3660046124bf565b610d7e565b3480156104be57600080fd5b5061037d6104cd3660046125c7565b610dbb565b3480156104de57600080fd5b506103bf6104ed3660046125ac565b60136020526000908152604090205481565b34801561050b57600080fd5b506103bf61051a3660046124bf565b610dd6565b34801561052b57600080fd5b5061037d610e69565b34801561054057600080fd5b5061037d61054f366004612694565b610f47565b34801561056057600080fd5b50600c546102ee9060ff1681565b34801561057a57600080fd5b506103bf6611c37937e0800081565b34801561059557600080fd5b506103456105a43660046124bf565b610f96565b3480156105b557600080fd5b506102ee6105c43660046125ac565b60116020526000908152604090205460ff1681565b3480156105e557600080fd5b506103bf6105f43660046125ac565b610ff6565b34801561060557600080fd5b5061037d61107c565b34801561061a57600080fd5b5061062e6106293660046125ac565b61108e565b6040516102fa91906126dd565b34801561064757600080fd5b506103bf60155481565b34801561065d57600080fd5b506000546001600160a01b0316610345565b34801561067b57600080fd5b506103bf603281565b34801561069057600080fd5b50610318611126565b3480156106a557600080fd5b506103bf6106b43660046125ac565b60146020526000908152604090205481565b3480156106d257600080fd5b506103bf600f5481565b61037d6106ea3660046124bf565b611135565b3480156106fb57600080fd5b5061037d61070a366004612720565b6113e2565b34801561071b57600080fd5b506103bf60105481565b34801561073157600080fd5b50600e54600f54601054604080519384526020840192909252908201526060016102fa565b34801561076257600080fd5b5061037d61077136600461275c565b6113ed565b34801561078257600080fd5b5061037d6107913660046127d8565b611425565b3480156107a257600080fd5b5061037d6114e0565b3480156107b757600080fd5b506103186107c63660046124bf565b611535565b3480156107d757600080fd5b5061037d6107e6366004612804565b61159c565b61037d6115c9565b3480156107ff57600080fd5b506102ee61080e366004612830565b6001600160a01b03918216600090815260076020908152604080832093909416825291909152205460ff1690565b34801561084857600080fd5b506103bf600a81565b34801561085d57600080fd5b5061037d61086c36600461256a565b6115d2565b34801561087d57600080fd5b5061037d61088c36600461256a565b611642565b34801561089d57600080fd5b506108a66116b2565b6040516102fa9190612870565b3480156108bf57600080fd5b5061037d6108ce3660046125ac565b6116e7565b3480156108df57600080fd5b506102ee6108ee3660046125ac565b60126020526000908152604090205460ff1681565b60006001600160e01b0319821663780e9d6360e01b148061092857506109288261175d565b92915050565b60606002805461093d90612898565b80601f016020809104026020016040519081016040528092919081815260200182805461096990612898565b80156109b65780601f1061098b576101008083540402835291602001916109b6565b820191906000526020600020905b81548152906001019060200180831161099957829003601f168201915b5050505050905090565b60006109cb826117ad565b506000908152600660205260409020546001600160a01b031690565b60006109f282610f96565b9050806001600160a01b0316836001600160a01b031603610a645760405162461bcd60e51b815260206004820152602160248201527f4552433732313a20617070726f76616c20746f2063757272656e74206f776e656044820152603960f91b60648201526084015b60405180910390fd5b336001600160a01b0382161480610a805750610a80813361080e565b610af25760405162461bcd60e51b815260206004820152603d60248201527f4552433732313a20617070726f76652063616c6c6572206973206e6f7420746f60448201527f6b656e206f776e6572206f7220617070726f76656420666f7220616c6c0000006064820152608401610a5b565b610afc838361180c565b505050565b610b0961187a565b6000805b82811015610b8b576000848483818110610b2957610b296128d2565b905060200201359050336001600160a01b0316610b4582610f96565b6001600160a01b031614610b5857600080fd5b610b6181610d7e565b610b6b90846128fe565b601654600092835260176020526040909220919091559150600101610b0d565b5060008111610b9957600080fd5b604051339082156108fc029083906000818181858888f19350505050158015610bc6573d6000803e3d6000fd5b5060405181815233907f8fbbda19f4a70036f6f585dc4160142a8fa2a20ffb9393d23274f78de4e398889060200160405180910390a250610c0660018055565b5050565b600080610c1683610ff6565b905060005b81811015610c4f576000610c2f8583610c87565b9050610c3a81610d7e565b610c4490856128fe565b935050600101610c1b565b5050919050565b610c6033826118d3565b610c7c5760405162461bcd60e51b8152600401610a5b90612911565b610afc838383611952565b6000610c9283610ff6565b8210610cf45760405162461bcd60e51b815260206004820152602b60248201527f455243373231456e756d657261626c653a206f776e657220696e646578206f7560448201526a74206f6620626f756e647360a81b6064820152608401610a5b565b506001600160a01b03919091166000908152600860209081526040808320938352929052205490565b610d25611ac3565b610d2d61187a565b4780610d3857600080fd5b600080546040516001600160a01b039091169183156108fc02918491818181858888f19350505050158015610d71573d6000803e3d6000fd5b5050610d7c60018055565b565b6000818152600460205260408120546001600160a01b0316610d9f57600080fd5b600082815260176020526040902054601654610928919061295e565b610afc838383604051806020016040528060008152506113ed565b6000610de1600a5490565b8210610e445760405162461bcd60e51b815260206004820152602c60248201527f455243373231456e756d657261626c653a20676c6f62616c20696e646578206f60448201526b7574206f6620626f756e647360a01b6064820152608401610a5b565b600a8281548110610e5757610e576128d2565b90600052602060002001549050919050565b610e7161187a565b600080610e7d33610ff6565b905060005b81811015610ecb576000610e963383610c87565b9050610ea181610d7e565b610eab90856128fe565b601654600092835260176020526040909220919091559250600101610e82565b5060008211610ed957600080fd5b604051339083156108fc029084906000818181858888f19350505050158015610f06573d6000803e3d6000fd5b5060405182815233907f8fbbda19f4a70036f6f585dc4160142a8fa2a20ffb9393d23274f78de4e398889060200160405180910390a25050610d7c60018055565b610f4f611ac3565b600d610f5b82826129b8565b507f5411e8ebf1636d9e83d5fc4900bf80cbac82e8790da2a4c94db4895e889eedf681604051610f8b91906124ac565b60405180910390a150565b6000818152600460205260408120546001600160a01b0316806109285760405162461bcd60e51b8152602060048201526018602482015277115490cdcc8c4e881a5b9d985b1a59081d1bdad95b88125160421b6044820152606401610a5b565b60006001600160a01b0382166110605760405162461bcd60e51b815260206004820152602960248201527f4552433732313a2061646472657373207a65726f206973206e6f7420612076616044820152683634b21037bbb732b960b91b6064820152608401610a5b565b506001600160a01b031660009081526005602052604090205490565b611084611ac3565b610d7c6000611b1d565b6060600061109b83610ff6565b905060008167ffffffffffffffff8111156110b8576110b8612604565b6040519080825280602002602001820160405280156110e1578160200160208202803683370190505b50905060005b8281101561111e576110f98582610c87565b82828151811061110b5761110b6128d2565b60209081029190910101526001016110e7565b509392505050565b60606003805461093d90612898565b61113d61187a565b6000611148600a5490565b905060006111546116b2565b600c5490915060ff161561116757600080fd5b600081600381111561117b5761117b61285a565b0361118557600080fd5b6000831161119257600080fd5b606f61119e84846128fe565b11156111a957600080fd5b600080546001600160a01b0316331461131c5760018260038111156111d0576111d061285a565b0361124f573360009081526011602052604090205460ff166111f157600080fd5b3360009081526013602052604090205460019061120f9086906128fe565b111561121a57600080fd5b341561122557600080fd5b33600090815260136020526040812080548692906112449084906128fe565b9091555061130f9050565b60028260038111156112635761126361285a565b036112e2573360009081526012602052604090205460ff1661128457600080fd5b33600090815260146020526040902054600a906112a29086906128fe565b11156112ad57600080fd5b6112be846601c6bf52634000612a77565b336000908152601460205260408120805492935086929091906112449084906128fe565b60038260038111156112f6576112f661285a565b0361130f5761130c846611c37937e08000612a77565b90505b8034101561131c57600080fd5b6000606461132b603234612a77565b6113359190612a8e565b90506000841180156113475750600081115b156113555761135581611b6d565b60005b8581101561139e57600061136c82876128fe565b6113779060016128fe565b90506113833382611c03565b60165460009182526017602052604090912055600101611358565b506040518581527f176b02bb2d12439ff7a20b59f402cca16c76f50508b13ef3166a600eb719354a9060200160405180910390a1505050506113df60018055565b50565b610c06338383611c1d565b6113f733836118d3565b6114135760405162461bcd60e51b8152600401610a5b90612911565b61141f84848484611ceb565b50505050565b61142d611ac3565b6000611438600a5490565b90506000831161144757600080fd5b606f61145384836128fe565b111561145e57600080fd5b60005b838110156114a757600061147582846128fe565b6114809060016128fe565b905061148c8482611c03565b60165460009182526017602052604090912055600101611461565b506040518381527f176b02bb2d12439ff7a20b59f402cca16c76f50508b13ef3166a600eb719354a9060200160405180910390a1505050565b6114e8611ac3565b600c805460ff8082161560ff1990921682179092556040519116151581527f9e3a5e37224532dea67b89face185703738a228a6e8a23dee546960180d3be649060200160405180910390a1565b6060611540826117ad565b600061154a611d1e565b9050600081511161156a5760405180602001604052806000815250611595565b8061157484611d2d565b604051602001611585929190612ab0565b6040516020818303038152906040525b9392505050565b6115a4611ac3565b81831080156115b257508082105b6115bb57600080fd5b600e92909255600f55601055565b610d7c34611b6d565b6115da611ac3565b60005b81811015610afc576001601260008585858181106115fd576115fd6128d2565b905060200201602081019061161291906125ac565b6001600160a01b031681526020810191909152604001600020805460ff19169115159190911790556001016115dd565b61164a611ac3565b60005b81811015610afc5760016011600085858581811061166d5761166d6128d2565b905060200201602081019061168291906125ac565b6001600160a01b031681526020810191909152604001600020805460ff191691151591909117905560010161164d565b600060105442106116c35750600390565b600f5442106116d25750600290565b600e5442106116e15750600190565b50600090565b6116ef611ac3565b6001600160a01b0381166117545760405162461bcd60e51b815260206004820152602660248201527f4f776e61626c653a206e6577206f776e657220697320746865207a65726f206160448201526564647265737360d01b6064820152608401610a5b565b6113df81611b1d565b60006001600160e01b031982166380ac58cd60e01b148061178e57506001600160e01b03198216635b5e139f60e01b145b8061092857506301ffc9a760e01b6001600160e01b0319831614610928565b6000818152600460205260409020546001600160a01b03166113df5760405162461bcd60e51b8152602060048201526018602482015277115490cdcc8c4e881a5b9d985b1a59081d1bdad95b88125160421b6044820152606401610a5b565b600081815260066020526040902080546001600160a01b0319166001600160a01b038416908117909155819061184182610f96565b6001600160a01b03167f8c5be1e5ebec7d5bd14f71427d1e84f3dd0314c0f7b2291e5b200ac8c7c3b92560405160405180910390a45050565b6002600154036118cc5760405162461bcd60e51b815260206004820152601f60248201527f5265656e7472616e637947756172643a207265656e7472616e742063616c6c006044820152606401610a5b565b6002600155565b6000806118df83610f96565b9050806001600160a01b0316846001600160a01b0316148061192657506001600160a01b0380821660009081526007602090815260408083209388168352929052205460ff165b8061194a5750836001600160a01b031661193f846109c0565b6001600160a01b0316145b949350505050565b826001600160a01b031661196582610f96565b6001600160a01b03161461198b5760405162461bcd60e51b8152600401610a5b90612adf565b6001600160a01b0382166119ed5760405162461bcd60e51b8152602060048201526024808201527f4552433732313a207472616e7366657220746f20746865207a65726f206164646044820152637265737360e01b6064820152608401610a5b565b6119fa8383836001611dc0565b826001600160a01b0316611a0d82610f96565b6001600160a01b031614611a335760405162461bcd60e51b8152600401610a5b90612adf565b600081815260066020908152604080832080546001600160a01b03199081169091556001600160a01b0387811680865260058552838620805460001901905590871680865283862080546001019055868652600490945282852080549092168417909155905184937fddf252ad1be2c89b69c2b068fc378daa952ba7f163c4a11628f55a4df523b3ef91a4505050565b6000546001600160a01b03163314610d7c5760405162461bcd60e51b815260206004820181905260248201527f4f776e61626c653a2063616c6c6572206973206e6f7420746865206f776e65726044820152606401610a5b565b600080546001600160a01b038381166001600160a01b0319831681178455604051919092169283917f8be0079c531659141344cd1fd0a4f28419497f9722a3daafe3b4186f6b6457e09190a35050565b60008111611b7a57600080fd5b6000611b85600a5490565b905060008111611b9457600080fd5b8160156000828254611ba691906128fe565b90915550611bb690508183612a8e565b60166000828254611bc791906128fe565b90915550506040518281527f5a02b40077e797196e633f9dd9c358d21e6c6fce881c924fac5d583fc4359f979060200160405180910390a15050565b610c06828260405180602001604052806000815250611ef4565b816001600160a01b0316836001600160a01b031603611c7e5760405162461bcd60e51b815260206004820152601960248201527f4552433732313a20617070726f766520746f2063616c6c6572000000000000006044820152606401610a5b565b6001600160a01b03838116600081815260076020908152604080832094871680845294825291829020805460ff191686151590811790915591519182527f17307eab39ab6107e8899845ad3d59bd9653f200f220920489ca2b5937696c31910160405180910390a3505050565b611cf6848484611952565b611d0284848484611f27565b61141f5760405162461bcd60e51b8152600401610a5b90612b24565b6060600d805461093d90612898565b60606000611d3a83612028565b600101905060008167ffffffffffffffff811115611d5a57611d5a612604565b6040519080825280601f01601f191660200182016040528015611d84576020820181803683370190505b5090508181016020015b600019016f181899199a1a9b1b9c1cb0b131b232b360811b600a86061a8153600a8504945084611d8e57509392505050565b6001811115611e2f5760405162461bcd60e51b815260206004820152603560248201527f455243373231456e756d657261626c653a20636f6e7365637574697665207472604482015274185b9cd9995c9cc81b9bdd081cdd5c1c1bdc9d1959605a1b6064820152608401610a5b565b816001600160a01b038516611e8b57611e8681600a80546000838152600b60205260408120829055600182018355919091527fc65a7bb8d6351c1cf70c95a316cc6a92839c986682d98bc35f958f4883f9d2a80155565b611eae565b836001600160a01b0316856001600160a01b031614611eae57611eae8582612100565b6001600160a01b038416611eca57611ec58161219d565b611eed565b846001600160a01b0316846001600160a01b031614611eed57611eed848261224c565b5050505050565b611efe8383612290565b611f0b6000848484611f27565b610afc5760405162461bcd60e51b8152600401610a5b90612b24565b60006001600160a01b0384163b1561201d57604051630a85bd0160e11b81526001600160a01b0385169063150b7a0290611f6b903390899088908890600401612b76565b6020604051808303816000875af1925050508015611fa6575060408051601f3d908101601f19168201909252611fa391810190612bb3565b60015b612003573d808015611fd4576040519150601f19603f3d011682016040523d82523d6000602084013e611fd9565b606091505b508051600003611ffb5760405162461bcd60e51b8152600401610a5b90612b24565b805181602001fd5b6001600160e01b031916630a85bd0160e11b14905061194a565b506001949350505050565b60008072184f03e93ff9f4daa797ed6e38ed64bf6a1f0160401b83106120675772184f03e93ff9f4daa797ed6e38ed64bf6a1f0160401b830492506040015b6d04ee2d6d415b85acef81000000008310612093576d04ee2d6d415b85acef8100000000830492506020015b662386f26fc1000083106120b157662386f26fc10000830492506010015b6305f5e10083106120c9576305f5e100830492506008015b61271083106120dd57612710830492506004015b606483106120ef576064830492506002015b600a83106109285760010192915050565b6000600161210d84610ff6565b612117919061295e565b60008381526009602052604090205490915080821461216a576001600160a01b03841660009081526008602090815260408083208584528252808320548484528184208190558352600990915290208190555b5060009182526009602090815260408084208490556001600160a01b039094168352600881528383209183525290812055565b600a546000906121af9060019061295e565b6000838152600b6020526040812054600a80549394509092849081106121d7576121d76128d2565b9060005260206000200154905080600a83815481106121f8576121f86128d2565b6000918252602080832090910192909255828152600b9091526040808220849055858252812055600a80548061223057612230612bd0565b6001900381819060005260206000200160009055905550505050565b600061225783610ff6565b6001600160a01b039093166000908152600860209081526040808320868452825280832085905593825260099052919091209190915550565b6001600160a01b0382166122e65760405162461bcd60e51b815260206004820181905260248201527f4552433732313a206d696e7420746f20746865207a65726f20616464726573736044820152606401610a5b565b6000818152600460205260409020546001600160a01b03161561234b5760405162461bcd60e51b815260206004820152601c60248201527f4552433732313a20746f6b656e20616c7265616479206d696e746564000000006044820152606401610a5b565b612359600083836001611dc0565b6000818152600460205260409020546001600160a01b0316156123be5760405162461bcd60e51b815260206004820152601c60248201527f4552433732313a20746f6b656e20616c7265616479206d696e746564000000006044820152606401610a5b565b6001600160a01b038216600081815260056020908152604080832080546001019055848352600490915280822080546001600160a01b0319168417905551839291907fddf252ad1be2c89b69c2b068fc378daa952ba7f163c4a11628f55a4df523b3ef908290a45050565b6001600160e01b0319811681146113df57600080fd5b60006020828403121561245157600080fd5b813561159581612429565b60005b8381101561247757818101518382015260200161245f565b50506000910152565b6000815180845261249881602086016020860161245c565b601f01601f19169290920160200192915050565b6020815260006115956020830184612480565b6000602082840312156124d157600080fd5b5035919050565b80356001600160a01b03811681146124ef57600080fd5b919050565b6000806040838503121561250757600080fd5b612510836124d8565b946020939093013593505050565b60008083601f84011261253057600080fd5b50813567ffffffffffffffff81111561254857600080fd5b6020830191508360208260051b850101111561256357600080fd5b9250929050565b6000806020838503121561257d57600080fd5b823567ffffffffffffffff81111561259457600080fd5b6125a08582860161251e565b90969095509350505050565b6000602082840312156125be57600080fd5b611595826124d8565b6000806000606084860312156125dc57600080fd5b6125e5846124d8565b92506125f3602085016124d8565b929592945050506040919091013590565b634e487b7160e01b600052604160045260246000fd5b60008067ffffffffffffffff84111561263557612635612604565b50604051601f19601f85018116603f0116810181811067ffffffffffffffff8211171561266457612664612604565b60405283815290508082840185101561267c57600080fd5b83836020830137600060208583010152509392505050565b6000602082840312156126a657600080fd5b813567ffffffffffffffff8111156126bd57600080fd5b8201601f810184136126ce57600080fd5b61194a8482356020840161261a565b602080825282518282018190526000918401906040840190835b818110156127155783518352602093840193909201916001016126f7565b509095945050505050565b6000806040838503121561273357600080fd5b61273c836124d8565b91506020830135801515811461275157600080fd5b809150509250929050565b6000806000806080858703121561277257600080fd5b61277b856124d8565b9350612789602086016124d8565b925060408501359150606085013567ffffffffffffffff8111156127ac57600080fd5b8501601f810187136127bd57600080fd5b6127cc8782356020840161261a565b91505092959194509250565b600080604083850312156127eb57600080fd5b823591506127fb602084016124d8565b90509250929050565b60008060006060848603121561281957600080fd5b505081359360208301359350604090920135919050565b6000806040838503121561284357600080fd5b61284c836124d8565b91506127fb602084016124d8565b634e487b7160e01b600052602160045260246000fd5b602081016004831061289257634e487b7160e01b600052602160045260246000fd5b91905290565b600181811c908216806128ac57607f821691505b6020821081036128cc57634e487b7160e01b600052602260045260246000fd5b50919050565b634e487b7160e01b600052603260045260246000fd5b634e487b7160e01b600052601160045260246000fd5b80820180821115610928576109286128e8565b6020808252602d908201527f4552433732313a2063616c6c6572206973206e6f7420746f6b656e206f776e6560408201526c1c881bdc88185c1c1c9bdd9959609a1b606082015260800190565b81810381811115610928576109286128e8565b601f821115610afc57806000526020600020601f840160051c810160208510156129985750805b601f840160051c820191505b81811015611eed57600081556001016129a4565b815167ffffffffffffffff8111156129d2576129d2612604565b6129e6816129e08454612898565b84612971565b6020601f821160018114612a1a5760008315612a025750848201515b600019600385901b1c1916600184901b178455611eed565b600084815260208120601f198516915b82811015612a4a5787850151825560209485019460019092019101612a2a565b5084821015612a685786840151600019600387901b60f8161c191681555b50505050600190811b01905550565b8082028115828204841417610928576109286128e8565b600082612aab57634e487b7160e01b600052601260045260246000fd5b500490565b60008351612ac281846020880161245c565b835190830190612ad681836020880161245c565b01949350505050565b60208082526025908201527f4552433732313a207472616e736665722066726f6d20696e636f72726563742060408201526437bbb732b960d91b606082015260800190565b60208082526032908201527f4552433732313a207472616e7366657220746f206e6f6e20455243373231526560408201527131b2b4bb32b91034b6b83632b6b2b73a32b960711b606082015260800190565b6001600160a01b0385811682528416602082015260408101839052608060608201819052600090612ba990830184612480565b9695505050505050565b600060208284031215612bc557600080fd5b815161159581612429565b634e487b7160e01b600052603160045260246000fdfea264697066735822122086b3c071e502086e5c98e790cebfbac1c3a8c4cbd134673619ff15b31557aeed64736f6c634300081c0033",
  "linkReferences": {},
  "deployedLinkReferences": {}
}